{
  "contractName": "GitHubIndex",
  "abi": [
    {
      "constant": true,
      "inputs": [],
      "name": "owner",
      "outputs": [
        {
          "name": "",
          "type": "address"
        }
      ],
      "payable": false,
      "stateMutability": "view",
      "type": "function"
    },
    {
      "payable": true,
      "stateMutability": "payable",
      "type": "fallback"
    },
    {
      "anonymous": false,
      "inputs": [
        {
          "indexed": true,
          "name": "userAddress",
          "type": "address"
        },
        {
          "indexed": false,
          "name": "username",
          "type": "string"
        },
        {
          "indexed": false,
          "name": "index",
          "type": "uint256"
        }
      ],
      "name": "LogNewUser",
      "type": "event"
    },
    {
      "anonymous": false,
      "inputs": [
        {
          "indexed": true,
          "name": "userAddress",
          "type": "address"
        },
        {
          "indexed": false,
          "name": "username",
          "type": "string"
        },
        {
          "indexed": false,
          "name": "index",
          "type": "uint256"
        }
      ],
      "name": "LogUpdateUser",
      "type": "event"
    },
    {
      "constant": false,
      "inputs": [],
      "name": "constuctor",
      "outputs": [],
      "payable": false,
      "stateMutability": "nonpayable",
      "type": "function"
    },
    {
      "constant": false,
      "inputs": [],
      "name": "kill",
      "outputs": [],
      "payable": false,
      "stateMutability": "nonpayable",
      "type": "function"
    },
    {
      "constant": true,
      "inputs": [
        {
          "name": "userAddress",
          "type": "address"
        }
      ],
      "name": "isUser",
      "outputs": [
        {
          "name": "isIndeed",
          "type": "bool"
        }
      ],
      "payable": false,
      "stateMutability": "view",
      "type": "function"
    },
    {
      "constant": false,
      "inputs": [
        {
          "name": "username",
          "type": "string"
        }
      ],
      "name": "addUser",
      "outputs": [
        {
          "name": "index",
          "type": "uint256"
        }
      ],
      "payable": false,
      "stateMutability": "nonpayable",
      "type": "function"
    },
    {
      "constant": true,
      "inputs": [
        {
          "name": "userAddress",
          "type": "address"
        }
      ],
      "name": "getUser",
      "outputs": [
        {
          "name": "username",
          "type": "string"
        },
        {
          "name": "index",
          "type": "uint256"
        }
      ],
      "payable": false,
      "stateMutability": "view",
      "type": "function"
    },
    {
      "constant": false,
      "inputs": [
        {
          "name": "username",
          "type": "string"
        }
      ],
      "name": "updateUser",
      "outputs": [
        {
          "name": "success",
          "type": "bool"
        }
      ],
      "payable": false,
      "stateMutability": "nonpayable",
      "type": "function"
    },
    {
      "constant": true,
      "inputs": [],
      "name": "getUserCount",
      "outputs": [
        {
          "name": "count",
          "type": "uint256"
        }
      ],
      "payable": false,
      "stateMutability": "view",
      "type": "function"
    },
    {
      "constant": true,
      "inputs": [
        {
          "name": "index",
          "type": "uint256"
        }
      ],
      "name": "getUserAtIndex",
      "outputs": [
        {
          "name": "userAddress",
          "type": "address"
        }
      ],
      "payable": false,
      "stateMutability": "view",
      "type": "function"
    }
  ],
  "bytecode": "0x608060405234801561001057600080fd5b50610b93806100206000396000f300608060405260043610610099576000357c0100000000000000000000000000000000000000000000000000000000900463ffffffff1680630b4f12f61461009b57806318b8275a1461011c57806341c0e1b5146101995780634209fff1146101b05780636f77926b1461020b5780638da5cb5b146102ce578063b5cb15f714610325578063dfe4858a14610350578063ffcc7bbf14610367575b005b3480156100a757600080fd5b50610102600480360381019080803590602001908201803590602001908080601f01602080910402602001604051908101604052809392919081815260200183838082843782019150505050505091929192905050506103d4565b604051808215151515815260200191505060405180910390f35b34801561012857600080fd5b50610183600480360381019080803590602001908201803590602001908080601f0160208091040260200160405190810160405280939291908181526020018383808284378201915050505050509192919290505050610547565b6040518082815260200191505060405180910390f35b3480156101a557600080fd5b506101ae61076e565b005b3480156101bc57600080fd5b506101f1600480360381019080803573ffffffffffffffffffffffffffffffffffffffff1690602001909291905050506107ff565b604051808215151515815260200191505060405180910390f35b34801561021757600080fd5b5061024c600480360381019080803573ffffffffffffffffffffffffffffffffffffffff1690602001909291905050506108c9565b6040518080602001838152602001828103825284818151815260200191508051906020019080838360005b83811015610292578082015181840152602081019050610277565b50505050905090810190601f1680156102bf5780820380516001836020036101000a031916815260200191505b50935050505060405180910390f35b3480156102da57600080fd5b506102e3610a0b565b604051808273ffffffffffffffffffffffffffffffffffffffff1673ffffffffffffffffffffffffffffffffffffffff16815260200191505060405180910390f35b34801561033157600080fd5b5061033a610a30565b6040518082815260200191505060405180910390f35b34801561035c57600080fd5b50610365610a3d565b005b34801561037357600080fd5b5061039260048036038101908080359060200190929190505050610a7f565b604051808273ffffffffffffffffffffffffffffffffffffffff1673ffffffffffffffffffffffffffffffffffffffff16815260200191505060405180910390f35b60006103df336107ff565b15156103ea57600080fd5b81600260003373ffffffffffffffffffffffffffffffffffffffff1673ffffffffffffffffffffffffffffffffffffffff1681526020019081526020016000206000019080519060200190610440929190610ac2565b503373ffffffffffffffffffffffffffffffffffffffff167f185d4424f09b078a43d9d7c037ec03f4c287be080042897f54c69a1a54805e3c83600260003373ffffffffffffffffffffffffffffffffffffffff1673ffffffffffffffffffffffffffffffffffffffff168152602001908152602001600020600101546040518080602001838152602001828103825284818151815260200191508051906020019080838360005b838110156105035780820151818401526020810190506104e8565b50505050905090810190601f1680156105305780820380516001836020036101000a031916815260200191505b50935050505060405180910390a260019050919050565b6000610552336107ff565b15151561055e57600080fd5b81600260003373ffffffffffffffffffffffffffffffffffffffff1673ffffffffffffffffffffffffffffffffffffffff16815260200190815260200160002060000190805190602001906105b4929190610ac2565b506001803390806001815401808255809150509060018203906000526020600020016000909192909190916101000a81548173ffffffffffffffffffffffffffffffffffffffff021916908373ffffffffffffffffffffffffffffffffffffffff16021790555003600260003373ffffffffffffffffffffffffffffffffffffffff1673ffffffffffffffffffffffffffffffffffffffff168152602001908152602001600020600101819055503373ffffffffffffffffffffffffffffffffffffffff167f2f68d6ec9a7b41971e7953fe15aa1c8e130d501959b10744cadc994544d8bbb083600260003373ffffffffffffffffffffffffffffffffffffffff1673ffffffffffffffffffffffffffffffffffffffff168152602001908152602001600020600101546040518080602001838152602001828103825284818151815260200191508051906020019080838360005b83811015610724578082015181840152602081019050610709565b50505050905090810190601f1680156107515780820380516001836020036101000a031916815260200191505b50935050505060405180910390a260018080549050039050919050565b6000809054906101000a900473ffffffffffffffffffffffffffffffffffffffff1673ffffffffffffffffffffffffffffffffffffffff163373ffffffffffffffffffffffffffffffffffffffff1614156107fd576000809054906101000a900473ffffffffffffffffffffffffffffffffffffffff1673ffffffffffffffffffffffffffffffffffffffff16ff5b565b600080600180549050141561081757600090506108c4565b8173ffffffffffffffffffffffffffffffffffffffff166001600260008573ffffffffffffffffffffffffffffffffffffffff1673ffffffffffffffffffffffffffffffffffffffff1681526020019081526020016000206001015481548110151561087f57fe5b9060005260206000200160009054906101000a900473ffffffffffffffffffffffffffffffffffffffff1673ffffffffffffffffffffffffffffffffffffffff161490505b919050565b606060006108d6836107ff565b15156108e157600080fd5b600260008473ffffffffffffffffffffffffffffffffffffffff1673ffffffffffffffffffffffffffffffffffffffff168152602001908152602001600020600001600260008573ffffffffffffffffffffffffffffffffffffffff1673ffffffffffffffffffffffffffffffffffffffff16815260200190815260200160002060010154818054600181600116156101000203166002900480601f0160208091040260200160405190810160405280929190818152602001828054600181600116156101000203166002900480156109fb5780601f106109d0576101008083540402835291602001916109fb565b820191906000526020600020905b8154815290600101906020018083116109de57829003601f168201915b5050505050915091509150915091565b6000809054906101000a900473ffffffffffffffffffffffffffffffffffffffff1681565b6000600180549050905090565b336000806101000a81548173ffffffffffffffffffffffffffffffffffffffff021916908373ffffffffffffffffffffffffffffffffffffffff160217905550565b6000600182815481101515610a9057fe5b9060005260206000200160009054906101000a900473ffffffffffffffffffffffffffffffffffffffff169050919050565b828054600181600116156101000203166002900490600052602060002090601f016020900481019282601f10610b0357805160ff1916838001178555610b31565b82800160010185558215610b31579182015b82811115610b30578251825591602001919060010190610b15565b5b509050610b3e9190610b42565b5090565b610b6491905b80821115610b60576000816000905550600101610b48565b5090565b905600a165627a7a723058202220ecb2be4800a9641b931a420a0033004f2cb420f3150eb5c8aec6e7f384190029",
  "source": "pragma solidity ^0.4.20;\n\ncontract GitHubIndex {\n  address public owner;\n  address[] private userIndex;\n\n  struct User {\n    string username;\n    uint index;\n  }\n\n  mapping(address => User) private users;\n\n  event LogNewUser(address indexed userAddress, string username, uint index);\n  event LogUpdateUser(address indexed userAddress, string username, uint index);\n\n  function constuctor() public{\n    owner = msg.sender;\n  }\n\n  function kill() public {\n    if(msg.sender == owner) selfdestruct(owner);\n  }\n\n  function isUser(address userAddress) public view returns(bool isIndeed) {\n    if(userIndex.length == 0) return false;\n    return (userIndex[users[userAddress].index] == userAddress);\n  }\n\n  function addUser(string username) public returns(uint index) {\n    require(!isUser(msg.sender));\n\n    users[msg.sender].username = username;\n    users[msg.sender].index = userIndex.push(msg.sender) - 1;\n\n    emit LogNewUser(msg.sender, username, users[msg.sender].index);\n\n    return userIndex.length - 1;\n  }\n  \n  function getUser(address userAddress) public view returns(string username, uint index) {\n    require(isUser(userAddress));\n    \n    return(\n      users[userAddress].username, \n      users[userAddress].index\n    );\n  } \n  \n  function updateUser(string username) public returns(bool success) {\n    require(isUser(msg.sender));\n    users[msg.sender].username = username;\n\n    emit LogUpdateUser(msg.sender, username, users[msg.sender].index);\n    \n    return true;\n  }\n\n  function getUserCount() public view returns(uint count) {\n    return userIndex.length;\n  }\n\n  function getUserAtIndex(uint index) public view returns(address userAddress) {\n    return userIndex[index];\n  }\n\n  // Fallback function in case someone sends ether to the contract so it doesn't get lost\n  function() public payable {}\n}\n",
  "sourcePath": "/Users/ward/Documents/Decentralised Apps Course/homework/search-contract/contracts/GitHubIndex.sol",
  "compiler": {
    "name": "solc",
    "version": "0.4.23+commit.124ca40d.Emscripten.clang"
  },
  "schemaVersion": "2.0.0",
  "updatedAt": "2018-05-21T03:23:30.130Z"
}